:100000000C942A000C9447000C9447000C94470071
:100010000C9447000C9447000C9447000C94470044
:100020000C9447000C9447000C9447000C94470034
:100030000C9447000C9447000C9447000C94470024
:100040000C9447000C9447000C9447000C94470014
:100050000C94470011241FBECFE5D8E0DEBFCDBF12
:1000600010E0A0E6B0E0E6E1FAE002C005900D92F3
:10007000A239B107D9F710E0A2E9B0E001C01D92A2
:10008000A239B107E1F70E9449000C9409050C94CC
:1000900000000E94B60360E875E280E090E00E94F4
:1000A0006C0480E690E00E94320482E061E00E94ED
:1000B0004B0487E690E00E9432040E949304C82F0C
:1000C00081538230D0F70E94410481E790E00E9482
:1000D0009704AA246894A4F801E011E00F2EF4E735
:1000E000EF2EF0E0FF2EF02D0F2EF1E7CF2EF0E0F7
:1000F000DF2EF02DBB24B3948824689484F80F2E4F
:10010000FFE09F2EF02DC13319F0C233E1F749C053
:100110000E949304D82F8D3049F18D3219F0883028
:1001200059F505C00E9441040B2D1B2DECCF802FEB
:10013000612F0E944B04103111F40230C9F11230CA
:1001400010F0115006C0113021F40230B1F51A2D13
:100150000B2D80E20E942004103119F4023009F4C2
:10016000192D802F612F0E944B04CDCF023058F6FD
:100170000F5FA12E1B2DC7CF802F612F0E944B0434
:100180008D2F0E942004103110F41F5FBCCF10315E
:1001900009F0B9CF023008F0B6CF0F5FA82C1B2DA5
:1001A000B2CFC7010E949704C6010E949704ABCF4B
:1001B00080E20E942004192DD4CF80E20E94200406
:1001C000D0CF823451F1833420F4813409F07BC0E4
:1001D00007C0833409F43EC0843409F074C057C0AA
:1001E000413069F42AB381E090E0AC0102C0440FD1
:1001F000551F6A95E2F7BA01622B6ABB08952AB3CC
:1002000081E090E0AC0102C0440F551F6A95E2F70F
:10021000BA01609562236ABB0895413069F427B33F
:1002200081E090E0AC0102C0440F551F6A95E2F7EF
:10023000BA01622B67BB089527B381E090E0AC015F
:1002400002C0440F551F6A95E2F7BA016095622318
:1002500067BB0895413069F424B381E090E0AC01BC
:1002600002C0440F551F6A95E2F7BA01622B64BBC6
:10027000089524B381E090E0AC0102C0440F551F03
:100280006A95E2F7BA016095622364BB0895413034
:1002900069F421B381E090E0AC0102C0440F551F26
:1002A0006A95E2F7BA01622B61BB089521B381E040
:1002B00090E0AC0102C0440F551F6A95E2F7BA0105
:1002C0006095622361BB0895823451F1833420F438
:1002D000813409F07BC007C0833409F43EC0843404
:1002E00009F074C057C0413069F42BB381E090E04D
:1002F000AC0102C0440F551F6A95E2F7BA01622BA8
:100300006BBB08952BB381E090E0AC0102C0440FB9
:10031000551F6A95E2F7BA01609562236BBB089599
:10032000413069F428B381E090E0AC0102C0440F91
:10033000551F6A95E2F7BA01622B68BB089528B38E
:1003400081E090E0AC0102C0440F551F6A95E2F7CE
:10035000BA016095622368BB0895413069F425B302
:1003600081E090E0AC0102C0440F551F6A95E2F7AE
:10037000BA01622B65BB089525B381E090E0AC0122
:1003800002C0440F551F6A95E2F7BA0160956223D7
:1003900065BB0895413069F422B381E090E0AC017F
:1003A00002C0440F551F6A95E2F7BA01622B62BB87
:1003B000089522B381E090E0AC0102C0440F551FC4
:1003C0006A95E2F7BA016095622362BB08958234B0
:1003D000F1F0833420F4813409F04FC006C0833437
:1003E00041F1843409F049C036C029B381E090E07E
:1003F000062E02C0880F991F0A94E2F730E082238C
:10040000932302C0959587956A95E2F7089526B3E0
:1004100081E090E0062E02C0880F991F0A94E2F74F
:1004200030E08223932302C0959587956A95E2F781
:10043000089523B381E090E0062E02C0880F991F33
:100440000A94E2F730E08223932302C095958795C2
:100450006A95E2F7089520B381E090E0062E02C08D
:10046000880F991F0A94E2F730E08223932302C099
:10047000959587956A95E2F7089580E0089582340E
:10048000B9F0833418F48134C9F505C08334E9F038
:100490008434A1F527C02BB381E090E0AC0102C009
:1004A000440F551F6A95E2F7BA0162276BBB0895A6
:1004B00028B381E090E0AC0102C0440F551F6A955B
:1004C000E2F7BA01622768BB089525B381E090E0A6
:1004D000AC0102C0440F551F6A95E2F7BA016227CA
:1004E00065BB089522B381E090E0AC0102C0440FE7
:1004F000551F6A95E2F7BA01622762BB08958234FC
:1005000061F0833418F4813469F405C0833439F020
:10051000843441F406C06ABB089567BB089564BB88
:10052000089561BB0895823461F0833418F48134F6
:1005300069F405C0833439F0843441F406C06BBBE0
:10054000089568BB089565BB089562BB0895823421
:1005500061F0833418F4813471F405C0833439F0C8
:10056000843449F406C089B3089586B3089583B3EB
:10057000089580B3089580E00895823451F1833462
:1005800020F4813409F07BC007C0833409F43EC0F5
:10059000843409F074C057C0413069F42BB381E052
:1005A00090E0AC0102C0440F551F6A95E2F7BA0112
:1005B000622B6BBB08952BB381E090E0AC0102C0CD
:1005C000440F551F6A95E2F7BA01609562236BBB31
:1005D0000895413069F428B381E090E0AC0102C095
:1005E000440F551F6A95E2F7BA01622B68BB089564
:1005F00028B381E090E0AC0102C0440F551F6A951A
:10060000E2F7BA016095622368BB0895413069F44E
:1006100025B381E090E0AC0102C0440F551F6A95FC
:10062000E2F7BA01622B65BB089525B381E090E043
:10063000AC0102C0440F551F6A95E2F7BA016095FC
:10064000622365BB0895413069F422B381E090E0F4
:10065000AC0102C0440F551F6A95E2F7BA01622B44
:1006600062BB089522B381E090E0AC0102C0440F68
:10067000551F6A95E2F7BA016095622362BB08953F
:100680006F70823481F0833418F48134F1F405C042
:10069000833479F08434C9F412C08BB3807F8BBB70
:1006A0008BB3862B8BBB88B3807F88BB88B3862BAC
:1006B00088BB85B3807F85BB85B3862B85BB82B322
:1006C000807F82BB82B3682B62BB08956295607F96
:1006D000823481F0833418F48134F1F405C083341A
:1006E00079F08434C9F412C08BB38F708BBB8BB399
:1006F000862B8BBB88B38F7088BB88B3862B88BB57
:1007000085B38F7085BB85B3862B85BB82B38F7015
:1007100082BB82B3682B62BB089582E460E041E053
:100720000E9464018FE99FE00197F1F700C000008B
:1007300082E460E040E00E9464018FE99FE001975D
:10074000F1F700C000000895682F81E40E94930231
:1007500082E461E040E00E9464010E948D038FEC1E
:1007600097E00197F1F700C0000008958FEF91EE38
:10077000A4E081509040A040E1F700C0000081E477
:1007800060E041E00E94E10081E461E041E00E941C
:10079000E10081E462E041E00E94E10081E463E085
:1007A00041E00E94E10081E464E041E00E94E10058
:1007B00081E465E041E00E94E10081E466E041E01F
:1007C0000E94E10081E467E041E00E94E10082E4F0
:1007D00060E041E00E94E10082E462E041E00E94CA
:1007E000E10082E461E041E00E94E10082E462E035
:1007F00040E00E94640188E30E94A403AFECB7E0EC
:100800001197F1F700C000008EE00E94A4038FEC66
:1008100097E00197F1F700C0000081E00E94A40377
:10082000AFE1BEE41197F1F700C0000086E00E943E
:10083000A4038FEC97E00197F1F700C00000089542
:10084000682F81E40E94930282E461E041E00E940B
:1008500064010E948D038FEC97E00197F1F700C0CF
:1008600000000895CF93DF93EC018881882331F055
:1008700021960E94200489918823D9F7DF91CF9196
:10088000089581E00E94A4038FE19EE40197F1F7AF
:1008900000C000000895282F2150223070F46131EB
:1008A00070F4662371F0813019F4962F91580AC0C4
:1008B000823041F4962F915405C090E803C090E82F
:1008C00001C090E8892F0E94A4038FEC97E0019764
:1008D000F1F700C000000895DC01CB01880F991FDB
:1008E000AA1FBB1F880F991FAA1FBB1F9C01AD0128
:1008F000220F331F441F551F220F331F441F551F44
:1009000060E072E18AE790E00E94E7042150304005
:1009100030BD29B9539A549A86E880BD08955D9BED
:10092000FECF8CB908955F9BFECF8CB10895CF9315
:10093000DF93EC018881882379F021960E948F044F
:100940008FEF90E7A2E081509040A040E1F700C017
:1009500000008991882391F7DF91CF9108951F932B
:10096000CF93DF93CDB7DEB760970FB6F894DEBFB5
:100970000FBECDBF88E690E0A0E0B0E089839A8307
:10098000AB83BC83FE0135968CE0DF011D928A9516
:10099000E9F70E94930489838D3069F010E01F5FAE
:1009A0000E949304E1E0F0E0EC0FFD1FE10FF11D68
:1009B00080838D30A1F7CE01019660960FB6F89432
:1009C000DEBF0FBECDBFDF91CF911F910895A1E291
:1009D0001A2EAA1BBB1BFD010DC0AA1FBB1FEE1FB9
:1009E000FF1FA217B307E407F50720F0A21BB30B04
:1009F000E40BF50B661F771F881F991F1A9469F780
:100A000060957095809590959B01AC01BD01CF01DB
:060A10000895F894FFCFE9
:100A1600313A53656E6400323A52656365697665AC
:100A2600000D0A0054686973206D6573736167650C
:100A36002069732066726F6D2041746D656761333E
:020A460032007C
:00000001FF
